{
  "contractName": "ResumeCheck",
  "abi": [
    {
      "constant": true,
      "inputs": [],
      "name": "creator",
      "outputs": [
        {
          "name": "",
          "type": "address"
        }
      ],
      "payable": false,
      "stateMutability": "view",
      "type": "function",
      "signature": "0x02d05d3f"
    },
    {
      "constant": true,
      "inputs": [
        {
          "name": "",
          "type": "bytes32"
        }
      ],
      "name": "resumeHashMap",
      "outputs": [
        {
          "name": "owner",
          "type": "address"
        },
        {
          "name": "date",
          "type": "uint256"
        }
      ],
      "payable": false,
      "stateMutability": "view",
      "type": "function",
      "signature": "0x56831c3c"
    },
    {
      "constant": true,
      "inputs": [],
      "name": "ResumeNo",
      "outputs": [
        {
          "name": "",
          "type": "uint256"
        }
      ],
      "payable": false,
      "stateMutability": "view",
      "type": "function",
      "signature": "0xb83698ba"
    },
    {
      "inputs": [],
      "payable": false,
      "stateMutability": "nonpayable",
      "type": "constructor",
      "signature": "constructor"
    },
    {
      "constant": false,
      "inputs": [
        {
          "name": "hash",
          "type": "bytes32"
        }
      ],
      "name": "NewResume",
      "outputs": [
        {
          "name": "success",
          "type": "bool"
        }
      ],
      "payable": false,
      "stateMutability": "nonpayable",
      "type": "function",
      "signature": "0x3d0f6d10"
    },
    {
      "constant": true,
      "inputs": [
        {
          "name": "hash",
          "type": "bytes32"
        }
      ],
      "name": "ResumeExist",
      "outputs": [
        {
          "name": "exists",
          "type": "bool"
        }
      ],
      "payable": false,
      "stateMutability": "view",
      "type": "function",
      "signature": "0x79290cc6"
    },
    {
      "constant": true,
      "inputs": [
        {
          "name": "hash",
          "type": "bytes32"
        }
      ],
      "name": "CapResume",
      "outputs": [
        {
          "name": "date",
          "type": "uint256"
        },
        {
          "name": "owner",
          "type": "address"
        }
      ],
      "payable": false,
      "stateMutability": "view",
      "type": "function",
      "signature": "0xd2f034b2"
    },
    {
      "constant": true,
      "inputs": [],
      "name": "CapTotalResume",
      "outputs": [
        {
          "name": "resumeNo",
          "type": "uint256"
        }
      ],
      "payable": false,
      "stateMutability": "view",
      "type": "function",
      "signature": "0x2848e1e2"
    }
  ],
  "bytecode": "0x608060405234801561001057600080fd5b5060008054600160a060020a03191633178155600155610353806100356000396000f3fe6080604052600436106100825763ffffffff7c010000000000000000000000000000000000000000000000000000000060003504166302d05d3f81146100875780632848e1e2146100c55780633d0f6d10146100ec57806356831c3c1461012a57806379290cc614610184578063b83698ba146101ae578063d2f034b2146101c3575b600080fd5b34801561009357600080fd5b5061009c61021b565b6040805173ffffffffffffffffffffffffffffffffffffffff9092168252519081900360200190f35b3480156100d157600080fd5b506100da610237565b60408051918252519081900360200190f35b3480156100f857600080fd5b506101166004803603602081101561010f57600080fd5b503561023d565b604080519115158252519081900360200190f35b34801561013657600080fd5b506101546004803603602081101561014d57600080fd5b5035610294565b6040805173ffffffffffffffffffffffffffffffffffffffff909316835260208301919091528051918290030190f35b34801561019057600080fd5b50610116600480360360208110156101a757600080fd5b50356102c6565b3480156101ba57600080fd5b506100da6102ef565b3480156101cf57600080fd5b506101ed600480360360208110156101e657600080fd5b50356102f5565b6040805192835273ffffffffffffffffffffffffffffffffffffffff90911660208301528051918290030190f35b60005473ffffffffffffffffffffffffffffffffffffffff1681565b60015490565b6000610248826102c6565b156102555750600061028f565b506000818152600260205260409020805473ffffffffffffffffffffffffffffffffffffffff191633178155426001918201558054810181555b919050565b6002602052600090815260409020805460019091015473ffffffffffffffffffffffffffffffffffffffff9091169082565b6000818152600260205260408120600101548110156102e75750600161028f565b506000919050565b60015481565b600090815260026020526040902060018101549054909173ffffffffffffffffffffffffffffffffffffffff9091169056fea165627a7a723058203111946b767dee632b7ed2033facd59c4ed426c3ea7ecd906ac75db2c681d33f0029",
  "source": "pragma solidity ^0.5.0;\n\ncontract ResumeCheck {\n    \n    struct resume {   // Initialize arrays for resume data\n        address owner;\n        uint date;\n    }\n    \n    address public creator;\n    uint public ResumeNo;\n    mapping(bytes32 => resume) public resumeHashMap; // Set mapping\n    \n    constructor() public {\n        creator = msg.sender;\n        ResumeNo = 0;\n    }\n    \n    function NewResume(bytes32 hash) public returns (bool success) {\n        if (ResumeExist(hash)) {     // Check resume existance first\n            success = false;        // If resume already exist no resume will be added to the HashMap \n        }else {\n            resume storage d = resumeHashMap[hash]; // If resume does not exist, start resume addition process \n            d.owner = msg.sender;\n            d.date = now;\n            ResumeNo++; // Counter for amount of resume added to the HashMap\n            success = true;\n        }\n        return success;\n    }\n    \n    function ResumeExist(bytes32 hash) public view returns (bool exists) { \n        if (resumeHashMap[hash].date > 0) { // Check if resume hash exsist in the HashMap (date as the condition)\n            exists = true;\n        } else {\n            exists = false;\n        }\n        return exists;\n    }\n    \n    function CapResume(bytes32 hash) public view returns (uint date, address owner) { // Get resume hash and assign date and owner to it\n        date = resumeHashMap[hash].date;\n        owner = resumeHashMap[hash].owner;\n    }\n\n    function CapTotalResume() public view returns (uint resumeNo) {  //Call Amount of resume from NewResume function\n        return ResumeNo;\n    }\n}",
  "sourcePath": "C:/Users/new/Documents/Desktop/Final Year Project/Blocky-Resume/contracts/ResumeCheck.sol",
  "compiler": {
    "name": "solc",
    "version": "0.5.0+commit.1d4f565a.Emscripten.clang"
  },
  "schemaVersion": "3.0.2",
  "updatedAt": "2021-03-08T03:59:58.152Z",
  "devdoc": {
    "methods": {}
  },
  "userdoc": {
    "methods": {}
  }
}